:020000040000fa
:080000000001040000000000f3
:020000040000fa
:040008000c030000e5
:020000040000fa
:04000c000c030000e1
:020000040000fa
:040010000c030000dd
:020000040000fa
:040014000c030000d9
:020000040000fa
:040018000c030000d5
:020000040000fa
:04001c000c030000d1
:020000040000fa
:040020000c030000cd
:020000040000fa
:040024000c030000c9
:020000040000fa
:040028000c030000c5
:020000040000fa
:04002c000c030000c1
:020000040000fa
:040030000c030000bd
:020000040000fa
:0400340018020000ae
:020000040000fa
:040038000c030000b5
:020000040000fa
:04003c000c030000b1
:020000040000fa
:040040000c030000ad
:020000040000fa
:04004400d8020000de
:020000040000fa
:040048000c030000a5
:020000040000fa
:04004c000c030000a1
:020000040000fa
:040050000c0300009d
:020000040000fa
:040054000c03000099
:020000040000fa
:040058000c03000095
:020000040000fa
:04005c000c03000091
:020000040000fa
:040060000c0300008d
:020000040000fa
:040064000c03000089
:020000040000fa
:040068000c03000085
:020000040000fa
:04006c000c03000081
:020000040000fa
:040070000c0300007d
:020000040000fa
:040074000c03000079
:020000040000fa
:040078000c03000075
:020000040000fa
:04007c000c03000071
:020000040000fa
:040080000c0300006d
:020000040000fa
:040084000c03000069
:020000040000fa
:040088000c03000065
:020000040000fa
:04008c000c03000061
:020000040000fa
:040090000c0300005d
:020000040000fa
:040094000c03000059
:020000040000fa
:040098000c03000055
:020000040000fa
:04009c000c03000051
:020000040000fa
:0400a000500200000a
:020000040000fa
:0400a400d002000086
:020000040000fa
:0400a8000c03000045
:020000040000fa
:0400ac000c03000041
:020000040000fa
:0400b0000c0300003d
:020000040000fa
:0400b4000c03000039
:020000040000fa
:0400b8000c03000035
:020000040000fa
:0400bc000c03000031
:020000040000fa
:0400c0000c0300002d
:020000040000fa
:0400c4000c03000029
:020000040000fa
:0400c8000c03000025
:020000040000fa
:0400cc000c03000021
:020000040000fa
:0400d0000c0300001d
:020000040000fa
:0400d4000c03000019
:020000040000fa
:0400d8000c03000015
:020000040000fa
:0400dc000c03000011
:020000040000fa
:0400e0000c0300000d
:020000040000fa
:0400e4000c03000009
:020000040000fa
:0400e8000c03000005
:020000040000fa
:0400ec000c03000001
:020000040000fa
:0400f0000c030000fd
:020000040000fa
:0400f4000c030000f9
:020000040000fa
:0400f8000c030000f5
:020000040000fa
:0400fc000c030000f1
:020000040000fa
:040100000c030000ec
:020000040000fa
:040104000c030000e8
:020000040000fa
:040108000c030000e4
:020000040000fa
:04010c000c030000e0
:020000040000fa
:040110000c030000dc
:020000040000fa
:040114000c030000d8
:020000040000fa
:040118000c030000d4
:020000040000fa
:04011c000c030000d0
:020000040000fa
:040120000c030000cc
:020000040000fa
:040124000c030000c8
:020000040000fa
:040128000c030000c4
:020000040000fa
:04012c000c030000c0
:020000040000fa
:040130000c030000bc
:020000040000fa
:040134000c030000b8
:020000040000fa
:040138000c030000b4
:020000040000fa
:04013c000c030000b0
:020000040000fa
:040140000c030000ac
:020000040000fa
:040144000c030000a8
:020000040000fa
:040148000c030000a4
:020000040000fa
:04014c000c030000a0
:020000040000fa
:040150000c0300009c
:020000040000fa
:040154000c03000098
:020000040000fa
:040158000c03000094
:020000040000fa
:04015c000c03000090
:020000040000fa
:040160000c0300008c
:020000040000fa
:040164000c03000088
:020000040000fa
:040168000c03000084
:020000040000fa
:04016c000c03000080
:020000040000fa
:040170000c0300007c
:020000040000fa
:040174000c03000078
:020000040000fa
:040178000c03000074
:020000040000fa
:04017c000c03000070
:020000040000fa
:040180000c0300006c
:020000040000fa
:040184000c03000068
:020000040000fa
:040188000c03000064
:020000040000fa
:04018c000c03000060
:020000040000fa
:040190000c0300005c
:020000040000fa
:040194000c03000058
:020000040000fa
:040198000c03000054
:020000040000fa
:04019c000c03000050
:020000040000fa
:0401a0000c0300004c
:020000040000fa
:0401a4000c03000048
:020000040000fa
:0401a8000c03000044
:020000040000fa
:0401ac000c03000040
:020000040000fa
:0401b0000c0300003c
:020000040000fa
:0401b4000c03000038
:020000040000fa
:0401b8000c03000034
:020000040000fa
:0401bc000c03000030
:020000040000fa
:0401c0000c0300002c
:020000040000fa
:0401c4000c03000028
:020000040000fa
:0401c8000c03000024
:020000040000fa
:0401cc000c03000020
:020000040000fa
:0401d0000c0300001c
:020000040000fa
:0401d4000c03000018
:020000040000fa
:0401d8000c03000014
:020000040000fa
:0401dc000c03000010
:020000040000fa
:0401e0000c0300000c
:020000040000fa
:0401e4000c03000008
:020000040000fa
:0401e8000c03000004
:020000040000fa
:0401ec000c03000000
:020000040000fa
:0401f0000c030000fc
:020000040000fa
:0401f4000c030000f8
:020000040000fa
:0401f8000c030000f4
:020000040000fa
:0401fc000c030000f0
:020000040000fa
:10020000af4f22000e7f24000e0188000000000086
:10021000000020000000e000020032000001200089
:100220002002880014000700fd0007000000e00025
:1002300003003a0060b624000100200002003700ed
:100240000000200001002000810f7000010032003a
:1002500014000700000020000000e000020032004f
:100260000000020000000000803a020000000000d0
:100270000040da000000fe004440a90000242000f5
:100280000000e00003003200002020009001880000
:100290004440a800000006008a1f78008b1f7800e9
:1002a00000000600a1028800800478000000eb0036
:1002b0001f003700e284440054a0b4009905ba003e
:1002c000e284440054a0b4009906ba00e2844400d9
:1002d00054a0b4000006eb00476fde00fd07b2003b
:1002e000ae018800636ce10003003a00eaff0700fa
:1002f0000000eb000e003700606ce10008003a00df
:10030000004deb000a05e800020039003420ec0043
:100310000af0a0008b05e900f9ff3e000400370059
:100320006168e100010032000086eb000b0007006d
:1003300019c7ba001905ba000e04e00003003a001c
:100340000a00e000dbff3a0000000600fe07b200f2
:10035000ae0288008a047800f5ff37000cd0a300b5
:10036000e20f4d001c00390089027800354dba00bb
:100370000a05e800020039003420ec000af0a00071
:100380008b05e9000f003200254dba000a05e80090
:10039000020039003420ec000af0a0008b05e900cf
:1003a000080032000c00e0000600320015cdba0053
:1003b0000a05e800020039003420ec000af0a00031
:1003c0008b05e9008984e80054a0b4000b00e0002c
:1003d000e2ff3a00000006009902ba00055d7800cd
:1003e0008b05e900f7ff3200c82ade00055d7800c2
:1003f0008b05e900f3ff32000c00e000f1ff320052
:1004000019ddba00eeff3700fe1504000000000001
:10041000fe390400000000001a350400000000004e
:10042000ae350400000000009c380400000000000d
:100430003600f800809fbe00829fbe00849fbe00f1
:10044000869fbe003200f8003400f8001000200043
:10045000a001880000202000900188000000fa0020
:100460008860a900170707000000e00003003200c1
:10047000124b020000000000000000000080fa00a3
:100480003400f9003200f9004f03be004f02be00f5
:100490004f01be004f00be003600f90000400600cc
:1004a0003600f800809fbe00829fbe00849fbe0081
:1004b000869fbe000800fa000000eb0010079800bd
:1004c0008bc0a900a01d8000004f7800801d800017
:1004d000620060000000e00001003200b023a900cb
:1004e0001e407800ed4f5000030032001e4078009f
:1004f000ea4f500005003a00200020002007980035
:100500009e40780061479800100037001e40780038
:10051000e84f500004003200f0c7b3009e4078005e
:1005200080cf500005003a003000200020079800de
:100530009e407800614798000400370010002000ba
:10054000200798009e40780061479800f0408000a6
:100550000000e00005003200f04080000e81e8005d
:10056000e40047008001eb00931007001e0090009c
:100570000000e00003003200124b02000000000007
:10058000000000000080fa004f03be004f02be00d2
:100590004f01be004f00be003600f90000400600cb
:1005a0000000fa008be0a9000080fa00004006007d
:1005b000809fbe000000fa0088e0a90047c8bf0085
:1005c0000040e80047e8b7007184200091407800bf
:1005d00030c6b30080cf5000010036004768ef00fe
:1005e0004ec8bf000004e000070032007184200004
:1005f0009140780046c8bf0080cf50000200310013
:100600007ae6a800010037007ae6a9000080fa0027
:100610004f00be00004006000040da000000fe006f
:10062000000005006022b800060220000000d00093
:100630008180d2000482d2008582d2000000a00016
:100640000202520083825a0003003100020242007b
:1006500083824a000000a1000603e900f3ff3a008c
:100660000000060080007800100020000202200038
:10067000828f500004003200e9805000e48f500067
:10068000010036000000eb0000000600889fbe005d
:100690008a1f7800000578000a04780098447800e2
:1006a0000805e8000900fb00eeff07000000e0007d
:1006b000f9ff3a00b0c2b30080cf54000500320009
:1006c000d0c2b3008000eb0080cf540005003a0098
:1006d000020037008000eb0001003700110020000d
:1006e0000804e8000000eb00030037006a02b900cc
:1006f000020052000003b0003801fb0003fd2f0090
:1007000082814100e98f5100f8ff36000100e000ce
:1007100001003a000000ea004f0578004f04be00d7
:1007200000000600010037000201e9000200e000bd
:100730000500320030427800b1417800834f52000a
:10074000f9ff320001003700000005000480fb00c3
:100750008381fb0003005000000006008001780048
:1007600002003700b15978000201e9000200e00000
:10077000fcff3a0000000600889fbe008a9fbe0072
:10078000800478000200e0005b0032000140780045
:10079000814c780082814400f1f99f00e20f510002
:1007a0005500360091449800a1449800e1f99f005b
:1007b000d1f99f00e60f51004f003600b144980078
:1007c000c1f99f00e80f51004b0036000905ea000f
:1007d000630565000a8444000a055100c1ff2f002b
:1007e000010565000080fb008000eb001210200076
:1007f0001310200091000700008cbe000a01440085
:1008000060b99f0071b99f00e80f55003a003600ab
:100810002004980031049800400498005104980086
:1008200020b99f0031b99f0040b99f0051b99f0086
:10083000f80f5500300036006004980071049800ed
:10084000000c9800110c9800200c9800310c9800b6
:10085000400c9800510c980020b19f0031b19f00ce
:1008600040b19f0051b19f0060b19f0071b19f00e6
:1008700000b99f0011b99f00640164007801410034
:1008800002044400020555006011b8000203be00d6
:100890000002be000403be006022b8000000720027
:1008a00081807200020173008381730010003700a1
:1008b000009cbe000294be004004980051049800c1
:1008c0006204980073049800000c9800110c9800c2
:1008d000220c9800330c9800400c9800510c9800a2
:1008e000620c9800730c98000a02b1000802b00074
:1008f000ff0f5500eeff3e00090078004f05be00d7
:100900004f04be0000000600881f78000104780034
:100910008800780005000700904f140001003200a5
:100920000000eb004f04780000000600881f7800ec
:10093000000478008180fb000a003a00080078007b
:100940002600070000004400220037001804e000e1
:10095000200032000804e8001081fb00810f5100e4
:100960001c003200080078000808a300f7ff3a00d6
:1009700014102000048ab9000801780038007800bb
:10098000f5ef2f00808242008081ea0083826200be
:10099000030828008382620007003a0000006a0012
:1009a000f5ef2f00808242000080ea0000806200a4
:1009b00083016000f0ff3200020078001204e000c2
:1009c000040032000201e8009081fb00818f510099
:1009d000f9ff3a004f04780000000600800078001c
:1009e000040037003104e00002003a00000051002a
:1009f00000000600010178000108a300f9ff3a0099
:100a00008101780031017800f4ef2f0002024200ea
:100a10000281ea000201620004082800040161006a
:100a2000f7ff320083007800010178003104e00014
:100a3000fdff3a000000510000000600020ab90064
:100a4000001bb9000200b800810042008100430091
:040a5000000006009c
:020000040000fa
:100a54000d0a00000a3d00003d3d00003d3d000040
:100a64003d3d00003d3d00003d3d00003d3d00009a
:100a74003d3d00003d3d00003d3d00003d3d00008a
:100a84003d3d00003d3d00003d3d00003d3d00007a
:100a94003d3d00003d3d00003d3d00003d3d00006a
:100aa4003d3d00003d0d00000a0000002020000034
:100ab4002020000020200000434f0000554e00007d
:100ac400544400004f5700004e20000054490000d9
:100ad4004d4500005220000041500000504c0000e1
:100ae4004943000041540000494f00004e0d0000ee
:100af4000a0000003d3d00003d3d00003d3d00007a
:100b04003d3d00003d3d00003d3d00003d3d0000f9
:100b14003d3d00003d3d00003d3d00003d3d0000e9
:100b24003d3d00003d3d00003d3d00003d3d0000d9
:100b34003d3d00003d3d00003d3d00003d3d0000c9
:100b44003d3d00000d0a00000050000072650000e9
:100b54007373000020500000423100002074000034
:100b64006f200000656e00007465000072200000b4
:100b7400746900006d6500002e2e00002e0d00002b
:100b84000a0a0000000d00000a4500006e7400000f
:100b940065720000206300006f7500006e74000031
:100ba400646f0000776e000020740000696d00001f
:100bb40065200000284d00004d3a0000535300000a
:100bc400293a00002000000008200000080000006e
:100bd4000d0a0000546900006d65000020730000d8
:100be400657400002120000050720000657300004d
:100bf4007320000050420000322b000050420000dd
:100c040033200000746f0000207300007461000042
:100c140072740000202800006c6f00006e670000f2
:100c240020700000726500007373000020740000df
:100c34006f200000636c00006561000072290000f1
:100c44002e0d00000a0000000d0a0000496e00008d
:100c5400766100006c690000642000007469000083
:100c64006d6500002e0d00000a0000000d0a000052
:100c7400496e0000766100006c6900006420000089
:100c8400666f0000726d0000617400002e20000089
:100c940055730000652000004d4d00003a530000dc
:100ca400530d00000a0000000d0a00005469000002
:100cb4006d650000206300006c6500006172000037
:100cc400656400002e200000526500002d650000c0
:100cd4006e7400006572000020760000616c0000f4
:100ce400756500002e0d00000a0000005b45000041
:100cf400525200004f5200003a2000004e6f000094
:100d040020740000696d0000652000007365000018
:100d1400745d00000d0a0000000d00000a5b000075
:100d2400434f0000554e0000544400004f5700004c
:100d34004e2000005354000041520000544500006e
:100d4400445d00000d0a0000000d00000a5400007c
:100d5400696d0000653a0000200000000d0a0000e3
:100d6400000d00000a5b00005041000055530000d4
:100d7400454400005d0d00000a0000000d0a00005b
:100d84005b52000045530000554d000045440000ef
:100d94005d0d00000a0000000d0a00005b41000028
:100da400424f000052540000454400005d0d000015
:100db4000a000000546900006d6500003a2000003c
:100dc400000d00000a0a0000434f0000554e0000c9
:100dd400544400004f5700004e200000434f0000d1
:100de4004d5000004c45000054450000210d00000a
:100df4000a0a000000420000544e000000570000a0
:100e04004149000054000000494e000050550000c4
:100e140054000000434f0000554e000054000000f1
:100e2400111100002222000033330000444400006a
:100e3400555500006666000077770000888800003a
:100e440099990000aaaa0000bbbb0000cccc00000a
:100e5400dddd0000eeee0000cecd0000acab000006
:100e640004000000494400004c45000000a50000b7
:100e7400a5a50000a5a50000a5a50000a5a5000046
:100e8400a5a50000a5a50000a5a50000a5a5000036
:100e9400a5a50000a500000000050000142700001f
:100ea4003b4e00005b620000646200005b4e000089
:100eb4003b270000140500000a7400006f6f000057
:100ec400206c00006f6e0000670a00000d00000037
:020000040000fa
:100ed4000e00fa00100798002107980032079800c6
:100ee400430798005407980065079800e002200023
:100ef40047210700000f78001e0078000000e00082
:100f040012003200e20220008000eb001e00780094
:100f140018fe07003e009000000040003c2107003e
:100f2400800078001e007800410898001e007800b8
:100f3400400890000000e00004003a001e00780021
:100f44006c2107000000eb00000f78001e00780001
:100f54000000e000090032008003eb001e0378006b
:100f6400ee0290005e029000ce0190003e019000df
:100f7400ae0090001e0090001f0007001e007800c5
:100f84000080fa00000006001000fa002007980014
:100f940031079800420798005307980064079800a7
:100fa40075079800fe0290006e029000de0190002a
:100fb4004e019000be0090002e009000c4ff070078
:100fc400100798001e0090000000e00005003200a9
:100fd4001e0090006d00070010002000000f780034
:100fe400020037000080eb00000f78001e0078003c
:100ff4000080fa00000006001400fa0020079800a0
:101004003107980042079800530798006407980036
:1010140075079800060f9800170f98004e0090006f
:1010240000004000800078000e0890004008900006
:1010340001017800510a2000cefd07000e0890003f
:10104400c0089000110798001e0090000000e800fe
:101054000000a100100798000e089000c00890003e
:101064004e0090000000e900000040008080400035
:101074000e089000111098003e0090000000e0005f
:10108400180032000000eb00000f78000d0037005c
:101094003e0090001e004000904078000e08900032
:1010a4001e0040007a004000014878003e00900095
:1010b4001e004000104078000004e00005003200eb
:1010c4001e0fe8001e007800e70f5000f0ff360006
:1010d40001003700000000000e0890008040eb0083
:1010e400116098006e009000e40f5000020036007a
:1010f40040002000600798000e089000ee00900069
:10110400310898000e089000ee009000211098001d
:101114000e0890000080e800db1f07000e08900016
:101124006c004000d81f07000e0890008e08900045
:10113400410098006e009000e50010000e08900039
:10114400610098000e0890008e0890001108980025
:101154005e019000ae0090001e0090001a1f070070
:10116400800078000e089000010878007e0090004e
:101174000000e000030032007e0090008e08900022
:10118400010878000080fa00000006000400fa005c
:1011940010079800881f0700304080000000e80016
:1011a40030408800004080000000e00007003a0062
:1011b4009e0090000140880030408000e10f500004
:1011c4000d003a00970607000b00370060408000ce
:1011d4000000e00008003a0000408000b0089000e1
:1011e4001e00900030089000808f500002003e00e6
:1011f4009e00900001408800a04080000000e800ac
:10120400a04088001e009000b0089000504080006c
:10121400808f5000030036001e00900030089000bc
:10122400504088001e009000300890006a00b90009
:10123400800078000045220000804000900090006b
:10124400010f78001e0090009e0078002100980095
:101254001e007800a00090001e009000310098004d
:101264001e007800200090009e0090008180e8001d
:10127400110098001e0090008080e8001e00780095
:10128400210098001e009000300890006a00b90008
:101294008000780000452200808040001e009000fd
:1012a400510098001e009000300890006a00b900b8
:1012b4008000780000452200008140001e0090005c
:1012c400300890006a00b9008000780000452200d0
:1012d40000804000100078000000e8000009780059
:1012e400421f0700604080000000e0000900320057
:1012f40000408000b00890001e009000300890006c
:10130400808f500003003100124b020000000000e7
:10131400000000000080fa00000006000c00fa0043
:1013240040079800510798000000eb00000f780078
:101334007002070041408000110798004e009000a1
:10134400900078005e009000008040002007980024
:101354004e009000900078001e009000808f500096
:101364000c0036004e009000900078002e00900093
:10137400808f500012003600ae0090001e009000d6
:10138400808f50000e00360010002000000f7800ff
:101394000b0037004e009000900078002e00900063
:1013a400808f500004003e00ae0090001e009000ac
:1013b400808f50000200360010002000000f7800db
:1013c4004e009000ae009000010878001e007800e6
:1013d4000000e00005003200ae0090001e00900006
:1013e400008050008000eb00540b07004702070008
:1013f400300798003e0090000000e00003003a002f
:10140400124b020000000000000000001e007800e3
:101414000080fa00000006000400fa00100798009b
:101424000000eb00000f78001e0090000000e000b8
:10143400060032002f0207008000eb001e0090001f
:101444003e0b070031020700000f78001e007800f1
:101454000000e00003003a00124b0200000000000c
:10146400000000000080fa00000006000e00fa00f0
:1014740050079800610798000000eb00000f780007
:101484006e009000e40f500002003600400020007f
:1014940060079800c81e07005e0090000000e0008e
:1014a40002003a0000408000010037005e00900016
:1014b400100798001e009000a010900021079800cb
:1014c400ae0090006e009000808f50007b003200d0
:1014d400ee0090002e009000808f50000c0036002b
:1014e400004080009e009000808f50000e0032006b
:1014f40000408000b00890006e009000808f500083
:101504000900310010002000000f780006003700a9
:10151400004080009e009000808f500002003a003e
:1015240010002000000f78001e009000b00890000a
:10153400310798001e009000a01090001e0090003b
:1015440030089000808f5000050032001e0090008b
:10155400b00890006e009000808f500003003100ae
:101564001e009000ee009000310898001e009000cc
:10157400ee009000211098001e0090006000900082
:101584000000e000040035006e009000e50010004b
:101594001e009000610098001e0090005001900011
:1015a4003e0090006a00b9008000780000452200e7
:1015b40000804000800f51003a003a001e00900065
:1015c4000080e800071f07001e009000b00890008c
:1015d40050408000808f5000030036001e009000b1
:1015e40030089000504088001e00900030089000a1
:1015f4006a00b900800078000045220000804000a5
:1016040090009000410798001e009000ce009000ca
:10161400210098004e009000a00090001e00900051
:10162400310098004e009000200090009e00900031
:101634008180e800110098001e0090008080e8007e
:101644004e009000210098001e0090003008900089
:101654006a00b900800078000045220080804000c4
:101664001e009000510098001e0090003008900069
:101674006a00b90080007800004522000081400023
:101684001e009000300890006a00b90080007800c5
:101694000045220000804000100078000000e800af
:1016a400000978001e0078000000e000030032000a
:1016b400124b020000000000000000004b1e070057
:1016c4000080fa00000006000800fa0030079800c5
:1016d400391e07003e0090000000e00002003a00be
:1016e40000408000010037003e0090001007980081
:1016f4001e0090000080e800ba1e07001e00900043
:10170400200890000000e000030032001e0090005a
:101714006c004000b31e07001e0090000080e8002b
:1017240080007800004a22005e1e07000000eb00e3
:10173400000f78000c0037009e009000c2022000c9
:101744001e00410061407800e14f500005003a005e
:101754001e0090001e004000c002b0008040eb005c
:10176400014878001e0fe8001e0078000000e00029
:10177400f1ff34001d1e0700604080000000e000ff
:10178400030032000c1e070045050700171e070062
:10179400004080009e009000808f500010003a00ae
:1017a400604080000000e00004003200124b0200a0
:1017b400000000000000000009003700012581003e
:1017c4002107980030408000ae009000808f5000c8
:1017d40002003a000028ef0001003700040307006c
:1017e4000080fa00000006000800fa0030079800a4
:1017f4000000eb00000f7800be0090002107980065
:101804002e009000d0009000004a2200808f5000eb
:101814001d003a002e009000a008900060492200ac
:10182400808f5000180032002e0090002008900095
:101834000000e00014003a0010002000000f7800bf
:101844000000eb00100798000c003700ae00900079
:101854001e009000c002b00061407800e14f5000cb
:1018640003003a000000eb00000f78000600370088
:101874001e0090000000e800100798001e00900071
:101884000000e000f1ff34001e0078000080fa0040
:10189400000006000600fa0020079800ae00900041
:1018a400010f7800004080009e007800808f500077
:1018b400490032001e0078000000e00046003200bb
:1018c400bd1d07001e007800c7ff07000000e000f0
:1018d400400032001e80e800421e07001e0078000f
:1018e400b008900050408000808f50000300360004
:1018f4001e00780030089000504088001e007800d8
:10190400300890006a00b900800078000045220089
:101914000080400090009000110798001e0078009d
:101924009e009000210098001e009000a0009000ee
:101934001e007800310098001e00900020009000e6
:101944009e80e800110098009e80e8001e00900030
:10195400210098001e007800300890006a00b90049
:101964008000780000452200808040001e0078003e
:10197400510098001e007800300890006a00b900f9
:101984008000780000452200008140001e0078009d
:10199400300890006a00b9008000780000452200f9
:1019a40000804000100078000000e8000009780082
:1019b40000408000b00890001e00780030089000bd
:1019c400808f500003003100124b02000000000021
:1019d40000000000851d07000080fa0000000600da
:1019e4000a00fa00400798000000eb00000f78009e
:1019f400ce009000110798000000eb00200798002b
:101a04001e00900078ff07000000e0004d00320047
:101a1400d04080000000e00045003a001e00900025
:101a2400b00890000040800030089000808f500083
:101a34000400360010002000000f78001000200081
:101a4400804088001e0090000080e800e51d07002b
:101a54001e009000b008900050408000808f50001d
:101a6400030036001e0090003008900050408800ab
:101a74001e009000300890006a00b90080007800d1
:101a8400004522000080400090009000310798003b
:101a94001e009000be009000210098003e009000bf
:101aa400a00090001e009000310098003e009000bd
:101ab400200090009e0090008180e80011009800b2
:101ac4001e0090008080e8003e00900021009800f5
:101ad4001e009000300890006a00b9008000780071
:101ae40000452200808040001e00900051009800b4
:101af4001e009000300890006a00b9008000780051
:101b040000452200008140001e0090003008900033
:101b14006a00b9008000780000452200008040007f
:101b2400100078000000e800000978000500370084
:101b34001e0090006c004000800078006049220084
:101b4400581d07001e0078000080fa0000000600ff
:101b54001000fa0010002000000f7800e800470091
:101b6400030009008018eb000000eb003007980028
:101b74000000eb0020079800110037004173280093
:101b84002e009000008040009040780068014700db
:101b94002e0090000000410001487800e800470052
:101ba4002e00900000804000104078000004e00007
:101bb400070032002e0090000000e8002007980083
:101bc4002e009000e60f5000ecff360001003700b5
:101bd40000000000e80047002e0090000080400054
:101be4008040eb00014878000000eb0010079800eb
:101bf40016003700e05f2100300798001e009000b7
:101c04000000400080007800808120008080400037
:101c140068004700810278000002eb008001eb00bd
:101c240032072000800078003e009000d6fc0700b8
:101c3400000f78001e007800e10f500007003a0002
:101c44001e0090000000e800100798001e0090009d
:101c54000000e000e7ff340001003700000000004e
:101c64001e0078000080fa00000006000200fa005e
:101c7400b7ff0700000f78001e007800e10f500046
:101c84000d003a0011028000f0f12f000080600086
:101c94000050a000100288000000000000000000b6
:101ca4000080eb00b04088001000200060408800f5
:101cb4000828ef00911c0700903984000080fa0086
:101cc400000006000000fa0011028000f0f12f006d
:101cd400008060000050a000100288000000000096
:101ce400000000000c28ef009c1c07000080fa0094
:101cf400000006000000fa00d04080000000e80068
:101d0400d04088000080fa00000006000e00fa00af
:101d14000000eb00000f78000000eb0010079800b3
:101d2400a51c07000000eb0030079800d04080009d
:101d34000000e900d0408800d04080000000e000ae
:101d4400ae003a00304080000000e000ab003200fa
:101d540081003700e024810030009000000f7800fb
:101d64001e007800a0089000410798001e0078002b
:101d7400700090009e007800810890002100980077
:101d84001e007800000890009e007800f10090008a
:101d9400110098004e009000900090001e01780001
:101da4006c004100808f500004003a001e0078004f
:101db400800890004e009000110098001e007800ea
:101dc4008000eb00210898004e009000100078007d
:101dd4008000e9004e009000010878001e007800a1
:101de400d0009000510798001e0078002000900059
:101df4009e007800b1009000210098001e00780039
:101e0400300090009e007800a1009000110098001e
:101e14005e009000900090001e80e800808f5000cb
:101e240004003a001e007800b00090005e009000ac
:101e3400110098001e0078008000eb00510098000b
:101e44005e009000100078008000e9005e009000c1
:101e5400010878001e007800b0089000504080000f
:101e6400808f5000030036001e0078003008900078
:101e7400504088001e007800300890006a00b900c5
:101e8400800078000045220000804000100190008e
:101e9400620798001e007800ee0090002100980070
:101ea4006e009000a00090001e00780031009800a1
:101eb4006e009000200090009e80e80011009800c1
:101ec4009e80e8006e009000210098001e007800bb
:101ed400300890006a00b9008000780000452200b4
:101ee400808040001e007800510098001e00780099
:101ef400300890006a00b900800078000045220094
:101f0400008140001e007800300890006a00b9008b
:101f14008000780000452200008040001000780016
:101f24000000e800000978001e007800b008900066
:101f34000040800030089000808f5000060036007a
:101f44003e0090008000400000812000008040009e
:101f54001100200001087800b02481000000e00096
:101f64007cff3a001e0078000000e000010032000f
:101f74004b03070072408000220798002e00900057
:101f84000000e000100032004d0007000000e000f7
:101f9400060032003e0090008000400000812000d6
:101fa4000080400011002000010878002e009000fd
:101fb4000000e900200798002e0090000000e000d7
:101fc400f1ff3a000e28ef003e0090008000400030
:101fd4000081200000804000100078000000e00034
:101fe4000600320010002000100798000040800016
:101ff400124b02000000000000000000fb1b070061
:102004001e0090000080fa00000006000200fa00a2
:1020140041408000010f78001e0078000080fa0023
:10202400000006000400fa000000eb00000f780036
:1020340041408000110798001e0090000080fa00c3
:10204400000006000000fa00304080000080fa0022
:10205400000006000400fa00100798001e0090001b
:102064000000e00002003a00004080000100370058
:102074001e009000000f78009e0078007a804000d7
:102084000080fa00000006000400fa00100798001f
:1020940018ff0700c81b0700714080001e00900055
:1020a4000080400070408800d01b070017ff070025
:1020b400000f78001e0078000080fa00000006007f
:1020c4001000fa000000eb00000f7800d040800000
:1020d4000000e000c0003a00404080000000e8003a
:1020e400100798009e009000414088001e00900058
:1020f4000000e0000a003a00114080002107980027
:102104002040800010408800ae00900021408800ec
:10211400904080000000e80090408800e002070042
:10212400b04080009e009000808f500099003900dc
:10213400010037000000000010408000100078000b
:102144000000e00003003a000080eb00b04088008b
:102154009000370010408000300090003000900064
:10216400300798003e0090009000900041079800ce
:102174009e0090004e009000808f500003003100bc
:10218400ce009000b1408800820037003e009000ed
:10219400d0009000510798003e009000200090006d
:1021a400be009000b1009000210098003e00900015
:1021b40030009000be009000a10090001100980033
:1021c4005e009000900090003e0090000080e800c7
:1021d400808f500004003a003e009000b000900050
:1021e4005e009000110098003e0090008000eb001b
:1021f400510098005e009000100078008000e90013
:102204005e009000010878003e00900020089000d5
:102214000000e0001f0032003e009000a008900083
:10222400610798003e00900070009000be0090008e
:1022340081089000210098003e0090000008900062
:10224400be009000f1009000110098006e00900014
:10225400900090003e0090006c004000808f500081
:1022640004003a003e009000800890006e00900048
:10227400110098003e0090008000eb0021089800b7
:102284006e009000100078008000e9006e0090005d
:10229400010878003e009000b00890005040800093
:1022a400808f5000030036003e00900030089000fc
:1022b400504088003e009000300890006a00b90049
:1022c40080007800004522000080400090009000cb
:1022d400710798003e009000fe00900021009800d5
:1022e4007e009000a00090003e0090003100980015
:1022f4007e00900020009000be0090008180e800e5
:10230400110098003e0090008080e8007e0090005c
:10231400210098003e009000300890006a00b90047
:102324008000780000452200808040003e0090003c
:10233400510098003e009000300890006a00b900f7
:102344008000780000452200008140003e0090009b
:10235400300890006a00b90080007800004522002f
:1023640000804000100078000000e80000097800b8
:102374003e009000b00890000040800030089000bb
:10238400808f50006bff360010002000000f780093
:1023940069ff370000408000300890006a00b900ef
:1023a4008000780000452200008040001000780082
:1023b400e10f50000200360010002000000f7800ea
:1023c400804080000000e000060032001000200081
:1023d400000f780003003700704080000000e80020
:1023e400704088001e0078000080fa00000006009b
:1023f4000800fa00d04080000000e0000300320032
:102404001000200080408800410037001028ef00b1
:102414000040800010109000100798001e009000eb
:10242400740050001007980000408000900078006d
:102434000040800010109000808f50000600310092
:1024440042012000917328001e009000b4f8070098
:102454000000e00006003200004080007a004000e6
:102464002007980000408000ae009000551107003e
:1024740051408000010f7800010037001e0fe90071
:102484001e0078006a00b900800078000045220030
:1024940000804000100078000000e000f7ff3200e8
:1024a4001e0078006a00b900800078000045220010
:1024b40000804000300798003e009000100090001b
:1024c400900090003e009000110098003e009000a3
:1024d400900090003e00900064004000808f500007
:1024e40004003a003e009000b00090003e009000ce
:1024f400110098003e009000100090003000900001
:10250400004088009e007800514088000040800010
:102514000080fa00000006000400fa00000f7800b2
:1025240011079800004080006c0040008000780093
:102534001e007800f91a0700110020001e00900008
:10254400fe0607000080fa00000006000800fa00fa
:102554001007980021079800320798000040800077
:10256400ae00900001f0a000610098001e009000f1
:1025740090009000010f7800004080009e007800d9
:1025840071009800004080009e007800a100900037
:10259400010898001e00780020009000014080008f
:1025a400ec8040001100980000408000ec004000e6
:1025b4001e00780021009800004080009e009000da
:1025c400210898001e009000100078008000e800a8
:1025d4001e00900001087800110020003e009000c9
:1025e400d60607000080fa00000006000e00fa007c
:1025f400600798006e00900030009000300090005a
:10260400100798001e009000a00890002107980071
:102614001e009000700090009e00900081089000c1
:10262400210098001e009000000890009e00900079
:10263400f1009000110098002e009000900090008e
:102644001e0090006c004000808f500004003a008f
:102654001e009000800890002e0090001100980049
:102664001e0090008000eb00210898002e009000ce
:10267400100078008000e9002e0090000108780026
:10268400d04080000000e00057003a001e00900097
:10269400d0009000310798001e00900020009000a8
:1026a4009e009000b1009000210098001e00900050
:1026b400300090009e009000a1009000110098004e
:1026c4003e009000900090001e0090000080e80002
:1026d400808f500004003a001e009000b00090006b
:1026e4003e009000110098001e0090008000eb0056
:1026f400510098003e009000100078008000e9002e
:102704003e009000010878001e009000b008900080
:1027140050408000808f5000030036001e0090005f
:1027240030089000504088001e009000300890004f
:102734006a00b90080007800004522000080400053
:1027440090009000410798001e009000ce00900079
:10275400210098004e009000a00090001e00900000
:10276400310098004e009000200090009e009000e0
:102774008180e800110098001e0090008080e8002d
:102784004e009000210098001e0090003008900038
:102794006a00b90080007800004522008080400073
:1027a4001e009000510098001e0090003008900018
:1027b4006a00b900800078000045220000814000d2
:1027c4001e009000300890006a00b9008000780074
:1027d4000045220000804000100078000000e8005e
:1027e4000009780018003700c124810051079800bf
:1027f4001e009000de009000710098005e009000c2
:10280400a00090001e009000010898005e00900057
:10281400200090009e009000ec8040001100980081
:102824001e009000ec0040005e0090002100980023
:102834001e0090006149220021089800b024810004
:102844000000e800b02489001e009000b008900049
:102854000040800030089000808f50000500360052
:1028640010002000000f7800100020008040880035
:10287400020037000000eb00000f78001e00780013
:102884000080fa00000006000c00fa0040079800df
:10289400510798005e0090008000780001f0a000cd
:1028a4004e009000010878004e0090003000900027
:1028b400000f78004e009000c000900011079800af
:1028c4004e00900010009000ce009000a1009000f7
:1028d400210098004e00900020009000ce0090004f
:1028e40091009000110098001e009000900090004c
:1028f4004e009000808f500004003a004e0090007b
:10290400a00090001e009000110098004e0090005e
:102914008000eb00410098001e0090001000780039
:102924008000e9001e009000010878001e00780075
:10293400d0009000210798001e007800200090002d
:102944009e007800b1009000210098001e007800dd
:10295400300090009e007800a100900011009800c3
:102964002e009000900090001e80e800808f5000a0
:1029740004003a001e007800b00090002e00900081
:10298400110098001e0078008000eb0051009800b0
:102994002e009000100078008000e9002e009000c6
:1029a400010878001e007800b008900050408000b4
:1029b400808f5000030036001e007800300890001d
:1029c400504088001e007800300890006a00b9006a
:1029d40080007800004522000080400090009000b4
:1029e400310798001e007800be0090002100980076
:1029f4003e009000a00090001e0078003100980076
:102a04003e009000200090009e80e8001100980095
:102a14009e80e8003e009000210098001e0078008f
:102a2400300890006a00b900800078000045220058
:102a3400808040001e007800510098001e0078003d
:102a4400300890006a00b900800078000045220038
:102a5400008140001e007800300890006a00b90030
:102a640080007800004522000080400010007800bb
:102a74000000e800000978001e007800b00890000b
:102a84000040800030089000808f50000200360023
:102a940010002000804088000080fa00000006003a
:102aa4000200fa00000f78004319070091408000eb
:102ab4001e00780001087800414080001e00780064
:102ac40011009800491907000080fa000000060070
:102ad4000200fa00000f7800914080001e00780088
:102ae40001087800414080001e0078001100980021
:102af4000080fa00000006000a00fa00300798007f
:102b0400410798002c1907004140800011079800e4
:102b14003e009000100090009e0090000080500045
:102b2400200798004e00900010007800e10f40004c
:102b340003003a000000eb00000f78002500370086
:102b44003e0090009000780090408000808f5000fc
:102b54000b0032003e009000900090001e00900098
:102b6400808f500006003e0010002000000f780007
:102b74004e0090008000eb0001087800150037003b
:102b84004e009000900078002e009000808f50003e
:102b94000b0036004e009000900078002e0090004c
:102ba400808050004e009000010878003e009000a4
:102bb400c7ff07000000eb00000f78000500370096
:102bc4004e0090008000eb00010878001000200007
:102bd400000f7800051907001e0078000080fa0035
:102be400000006000000fa00100020008040880069
:102bf4000080fa00000006000200fa00000f7800ce
:102c04002400070080228100e10f500003003600f9
:102c1400124b02000000000000000000650f0700d6
:102c2400f7ff37000200fa000000eb00000f780005
:102c3400070037001e0078006a00b90080007800a1
:102c44000045220000804000f61807001e0fe8002f
:102c54001e007800e40f5000f6ff360020482200e2
:102c6400f0180700c0482200ee180700604922004f
:102c7400ec180700004a2200ea1807002048220046
:102c840010408800c0482200204088000080fa00dc
:102c9400000006000000fa000080fa0000000600b0
:102ca4000000fa0010408000100078000000e000ee
:102cb40003003a000080eb00b040880004003700b5
:102cc400104080003000900010007800b040880070
:102cd4000080fa00000006000200fa0001408000b3
:102ce400010f78001e0078000080fa000000060042
:102cf4000400fa00100798000000eb00000f7800b1
:102d04001e0090000000e00002003a000140800034
:102d1400010f78001e0078000080fa000000060011
:102d24000800fa0030079800be00900011079800d0
:102d34000000eb00000f78003e0090000000e0006f
:102d4400670032001e009000b00890000040800030
:102d540030089000808f5000590031001e00900010
:102d6400600090000000e000050035000040800095
:102d740030089000e50010001e00900061009800eb
:102d84001e009000500190001e009000300890003a
:102d94006a00b900800078000045220000804000ed
:102da400800f51003f003a001e0090000080e800b0
:102db4000c19070000408000b00890001e0090002d
:102dc400310898001e009000b00890005040800028
:102dd400808f5000030036001e00900030089000e1
:102de400504088001e009000300890006a00b9002e
:102df4008000780000452200008040009000900090
:102e0400210798001e009000ae0090002100980059
:102e14002e009000a00090001e0090003100980049
:102e24002e009000200090009e0090008180e80019
:102e3400110098001e0090008080e8002e00900091
:102e4400210098001e009000300890006a00b9002c
:102e54008000780000452200808040001e00900021
:102e6400510098001e009000300890006a00b900dc
:102e74008000780000452200008140001e00900080
:102e8400300890006a00b9008000780000452200f4
:102e940000804000100078000000e800000978007d
:102ea4000400370000408000b00890001e0090002d
:102eb4003108980010002000000f78000800370047
:102ec4001e009000a0109000004080003008900088
:102ed400808f50000200310010002000000f7800a5
:102ee4001e0078000080fa00000006000800fa00c6
:102ef40030079800be009000110798000000eb0016
:102f0400000f78003e0090000000e0005400320002
:102f14001e009000301090008000e9001e00900018
:102f2400311098001e009000b00890001e00900020
:102f340020109000808f5000490032001e00900045
:102f4400301090000000e00045003a001e009000a0
:102f54000080e800a31807001e009000a010900055
:102f64001e009000310898001e0090003008900068
:102f7400e50010001e009000610098001e00900003
:102f8400b008900050408000808f5000030036004d
:102f94001e00900030089000504088001e009000f1
:102fa400300890006a00b9008000780000452200d3
:102fb4000080400090009000210798001e009000bf
:102fc400ae009000210098002e009000a000900018
:102fd4001e009000310098002e0090002000900008
:102fe4009e0090008180e800110098001e0090006f
:102ff4008080e8002e009000210098001e009000c0
:10300400300890006a00b900800078000045220072
:10301400808040001e009000510098001e00900027
:10302400300890006a00b900800078000045220052
:10303400008140001e009000300890006a00b90032
:1030440080007800004522000080400010007800d5
:103054000000e8000009780010002000000f78004c
:103064001e0078000080fa00000006000e00fa003e
:103074005007980061079800de009000110798003f
:1030840010002000200798005e0090000000e0007f
:10309400650032001e009000a01090006e009000a9
:1030a400808f5000030031006e019000020f780001
:1030b400030037001e009000a0109000010f78005c
:1030c4001e009000300890009e0f50005600320001
:1030d4001e009000b01090002e009000808f5000d1
:1030e40051003a001e009000300990003207980009
:1030f4001e0090009e007800310898001e00900089
:10310400600090000000e000040035005200200040
:103114009e0051001e009000610098001e00900067
:10312400500190003e0090006a00b90080007800d1
:103134000045220000804000800f51003a003a0010
:103144001e0090000080e800261807001e00900072
:10315400b008900050408000808f5000030036007b
:103164001e00900030089000504088001e0090001f
:10317400300890006a00b900800078000045220001
:103184000080400090009000410798001e009000cd
:103194004e019000220098004e009000a000900084
:1031a4001e009000310098004e0090002000900016
:1031b4009e0090008180e800110098001e0090009d
:1031c4008080e8004e009000210098001e009000ce
:1031d400300890006a00b9008000780000452200a1
:1031e400808040001e009000510098001e00900056
:1031f400300890006a00b900800078000045220081
:10320400008140001e009000300890006a00b90060
:103214008000780000452200008040001000780003
:103224000000e800000978000080fa0000000600b1
:103234000200fa0000408000e0009000010f7800d6
:103244000040800001408000b1089000e58010003b
:10325400610098001e0078000080fa00000006005b
:103264000200fa0001408000010f78001e0078007f
:103274000000e000050032001e00780030109000cd
:103284008000e8001e007800311098001e007800cd
:103294000080fa00000006000e00fa0040079800c3
:1032a40051079800620798000000eb00000f7800b7
:1032b400014080004e0090006a0040004200dd00a2
:1032c400008040001000be00e00f5000e08f580066
:1032d40028003a006e0090000000e0002500320053
:1032e40084fa070034170700014080004e00900064
:1032f4006a0040004200dd00008040001000be0073
:10330400e00f5000e08f580008003a0001408000b0
:103314004e00900000804000c002b00011c0b30015
:103324000148780010002000000f78002f170700d4
:103334001e007800e10f500003003a001100200045
:103344006e0090007d03070070fa070010079800d4
:103354001e007800e10f500006003a001e009000a5
:103364000000e00003003a00124b020000000000dd
:103374000000000010170700014080004e0090007c
:103384006a0040004200dd00008040001001be00e1
:1033940022079800330798002e009000be0090008a
:1033a400e00f5000e08f5800150032005e009000de
:1033b4000000e00008003200014080004e00900050
:1033c4006a0040004200dd00008140006000b80057
:1033d4000089be000a003700034080002e009000e0
:1033e400be00900061005000e08058004e01900043
:1033f4006a0141004211dd00028141000089be00e2
:10340400014080004e00900000804000c002b000e7
:103414008040eb0001487800f41607002e0090006d
:10342400be0090000080fa00000006001400fa00bc
:10343400889fbe008a9fbe0030079800420798000c
:10344400530798006407980075079800010f9800c7
:10345400160f98000000eb00100798000140800050
:103464003e009000c002b00061407800e24f50007e
:103474003d0032001e0890000000e0003a003200d7
:103484001cfa0700cc160700014080003e009000a3
:10349400c002b00061407800e24f500020003200ca
:1034a400044080003e0090006a0040004200dd00bd
:1034b400000042001001be004e009000de009000ab
:1034c4000080ea008180ea0082027800030178002b
:1034d400800178008100780003806200810061002f
:1034e40081057800000578000a00be003e019000c6
:1034f4006a0141004211dd00020142000089be0060
:10350400014080003e00900000804000c002b000f6
:1035140011c0b30001487800100020001007980083
:10352400b21607001e009000e10f500003003a009d
:10353400110020001e08900000030700f3f90700a3
:10354400200798001e009000e10f500006003a008a
:103554002e0090000000e00003003a00124b02002d
:103564000000000000000000931607000e08900001
:103574000000e00008003200014080003e0090009e
:103584006a0040004200dd00008040001000be00e0
:103594000e0990000089be00014080003e009000aa
:1035a400c002b00061407800e24f500003003200d6
:1035b4000000eb00000f78001a0037000440800080
:1035c4003e0090006a0040004200dd00000042001e
:1035d4001001be006e009000fe0090000080ea0022
:1035e4008180ea008202780003017800800178007b
:1035f400810078000380620081006100810478000a
:10360400000478000800be003e0190006a014100f9
:103614004211dd00020142000089be0010002000ba
:10362400000f7800014080003e00900000804000c0
:10363400c002b0008040eb00014878006b16070020
:103644001e0078004f05be004f04be000080fa0043
:10365400000006001600fa00500798006107980061
:1036640072079800030f9800140f9800250f980014
:1036740010002000000f7800de0090001107980071
:103684004d1607002e0890000000e00008003200ec
:103694009e0090006e0090006a0040004200dd0031
:1036a400008040001000be002e0990000089be007a
:1036b4009e0090006e009000c002b000614178004e
:1036c400424798009e0090006e00900000804000e9
:1036d400c002b00021c0b300014878001e08900069
:1036e400e20f50001d003200e20f500005003e00c2
:1036f4000000e00040003200e10f500006003200fc
:103704003e003700e30f500023003200e40f500066
:103714002a003200390037009e0090006e009000ad
:103724006a0040004200dd00008040001001be003d
:103734007e0090008e08900000007100818071006e
:103744009e0190006e0190006a0141004211dd006b
:10375400028141000089be00280037009e009000cd
:103764006e0090006a0040004200dd0000804000ce
:103774001000be0061004000e08048009e019000ff
:103784006e0190006a0141004211dd000281410096
:103794000089be00190037009e0090006e00900062
:1037a4006a0040004200dd00008040007e0190007d
:1037b4008e0990000288be00100037004e40900031
:1037c400e24f5000090032009e0090006e0090000d
:1037d4006a0040004200dd00008040007e0190004d
:1037e4008e0990000288be00040037000000eb0040
:1037f400000f780001003700000000004e409000e8
:10380400e14f50005f003a001e009000d00190008c
:10381400330798001e009000200090009e00900046
:10382400b1009000210098001e009000300090002c
:103834009e009000a1009000110098003e009000ae
:10384400900090001e0090000080e800808f5000df
:1038540004003a001e009000b00090003e0090006a
:10386400110098001e0090008000eb0051009800a9
:103874003e009000100078008000e9003e009000b7
:10388400010878001e009000b008900050408000ad
:10389400808f5000030036001e0090003008900016
:1038a400504088001e009000300890006a00b90063
:1038b40080007800004522000080400090009000c5
:1038c400410798001e0090004e01900022009800cd
:1038d4004e009000a00090001e009000310098005f
:1038e4004e009000200090009e0090008180e8002f
:1038f400110098001e0090008080e8004e009000a7
:10390400210098001e009000300890006a00b90061
:103914008000780000452200808040001e00900056
:10392400510098001e009000300890006a00b90011
:103934008000780000452200008140001e009000b5
:10394400300890006a00b900800078000045220029
:1039540000804000100078000000e80000097800b2
:1039640000408000b00890001e00900030089000d5
:10397400808f500003003100124b02000000000051
:1039840000000000991507001e0078000080fa006e
:10399400000006001c00fa0070079800010f980050
:1039a400120f9800230f9800340f9800450f9800c9
:1039b400560f980010002000000f7800fe009000c1
:1039c400110798000000eb00200798004e089000b3
:1039d4000000e000080032009e0090000e089000f5
:1039e4006a0040004200dd00008040001000be007c
:1039f4004e0990000089be009e0090000e089000c1
:103a0400c002b00061417800624798009e009000b7
:103a14000e08900000804000c002b00021c0b30036
:103a2400014878003e089000e20f50001d0032006b
:103a3400e20f500005003e000000e00040003200ac
:103a4400e10f5000060032003e003700e30f500043
:103a540023003200e40f50002a00320039003700fe
:103a64009e0090000e0890006a0040004200dd00b5
:103a7400008040001001be001e089000ae089000b7
:103a840000007100818071009e0190000e09900079
:103a94006a0141004211dd00028141000089be003b
:103aa400280037009e0090000e0890006a00400035
:103ab4004200dd00008040001000be0061004000b4
:103ac400e08048009e0190000e0990006a014100c8
:103ad4004211dd00028141000089be001900370057
:103ae4009e0090000e0890006a0040004200dd0035
:103af400008040001e099000ae0990000288be00bc
:103b0400100037006e409000e24f50000900320070
:103b14009e0090000e0890006a0040004200dd0004
:103b2400008040001e099000ae0990000288be008b
:103b3400040037000000eb00000f7800010037009c
:103b4400000000006e409000e14f500080003a00f9
:103b5400d04080000000e00057003a001e009000b2
:103b6400d0019000430798001e00900020009000b0
:103b74009e009000b1009000210098001e0090006b
:103b8400300090009e009000a10090001100980069
:103b94004e009000900090001e0090000080e8000d
:103ba400808f500004003a001e009000b000900086
:103bb4004e009000110098001e0090008000eb0061
:103bc400510098004e009000100078008000e90039
:103bd4004e009000010878001e009000b00890008c
:103be40050408000808f5000030036001e0090007b
:103bf40030089000504088001e009000300890006b
:103c04006a00b9008000780000452200008040006e
:103c140090009000510798001e0090005e019000f3
:103c2400220098005e009000a00090001e0090000a
:103c3400310098005e009000200090009e009000eb
:103c44008180e800110098001e0090008080e80048
:103c54005e009000210098001e0090003008900043
:103c64006a00b9008000780000452200808040008e
:103c74001e009000510098001e0090003008900033
:103c84006a00b900800078000045220000814000ed
:103c94001e009000300890006a00b900800078008f
:103ca4000045220000804000100078000000e80079
:103cb4000009780018003700c324810063079800c6
:103cc4001e009000ee009000710098006e009000bd
:103cd400a00090001e009000010898006e00900063
:103ce400200090009e009000ec804000110098009d
:103cf4001e009000ec0040006e009000210098002f
:103d04001e0090006149220021089800b02481001f
:103d14000000e800b02489001e009000b008900064
:103d24000040800030089000808f5000080036006a
:103d34005e0890000000e000030032005e0890007e
:103d44001100200001087800100020008040880045
:103d54001e0078000080fa00000006001200fa003d
:103d64006007980071079800020f9800ee00900019
:103d7400010f78000000eb00100798009e00780007
:103d84007e009000c002b000614178004247980074
:103d94009e0078007e00900000804000c002b000c9
:103da40021c0b300014878009e0078007e00900096
:103db4006a0040004200dd00008040001000be00a8
:103dc40061004000e08048009e0178007e01900080
:103dd4006a0141004211dd00028141000089be00f8
:103de4004e409000e14f50007d003a00d0408000ea
:103df4000000e00054003a001e007800d00090005b
:103e0400310798001e007800200090009e00780082
:103e1400b1009000210098001e007800300090004e
:103e24009e007800a1009000110098003e009000d0
:103e3400900090001e80e800808f500004003a003b
:103e44001e007800b00090003e0090001100980021
:103e54001e0078008000eb00510098003e009000a6
:103e6400100078008000e9003e009000010878000e
:103e74001e007800b008900050408000808f5000f1
:103e8400030036001e00780030089000504088007f
:103e94001e007800300890006a00b90080007800a5
:103ea4000045220000804000100190004207980065
:103eb4001e007800ce009000210098004e00900073
:103ec400a00090001e007800310098004e00900081
:103ed400200090009e80e800110098009e80e80079
:103ee4004e009000210098001e00780030089000d9
:103ef4006a00b900800078000045220080804000fc
:103f04001e007800510098001e00780030089000d0
:103f14006a00b9008000780000452200008140005a
:103f24001e007800300890006a00b9008000780014
:103f34000045220000804000100078000000e800e6
:103f44000009780018003700c22481005207980045
:103f54001e007800de009000710098005e00900062
:103f6400a00090001e007800010898005e009000f8
:103f7400200090001e017800ec0041001100980020
:103f84001e017800ec0041005e00900021009800c2
:103f94001e0078006149220021089800b0248100a5
:103fa4000000e800b02489001e007800b0089000ea
:103fb4000040800030089000808f500008003600d8
:103fc4000e0890000000e000030032000e0890008c
:103fd40011002000010878001000200080408800b3
:103fe4000080fa00000006000800fa00200798008c
:103ff400310798002e0090000000e00002003a0013
:1040040000408000010037002e0090001007980047
:10401400e91307009e0090003e009000c002b0002b
:1040240061407800e24f500009003a009e00900081
:104034003e00900000804000c002b0008040eb00d1
:104044000148780010002000000f780002003700bb
:104054000000eb00000f7800e41307001e00780056
:104064000080fa00000006000e00fa00889fbe00df
:10407400300798004107980052079800630798009a
:104084003e0090000000e00002003a000040800082
:10409400010037003e009000000f7800c6130700af
:1040a4009e0078004e0090006a0040004200dd004f
:1040b400008040001001be001207980023079800fa
:1040c4009e0078004e0090006a0040004200dd002f
:1040d400008040001001be005e009000ee009000e1
:1040e4000080ea008180ea0002027800030178007f
:1040f4008001780081007800030062008100610083
:1041040081047800000478000800be009e01780055
:104114004e0190006a0141004211dd00028141001c
:104124000089be00b11307001e009000ae0090008d
:104134004f04be000080fa00000006000e00fa00e2
:10414400500798006107980041408000010f7800f3
:104154001140800011079800214080002107980039
:10416400004080000080e8001e1407005e009000fc
:10417400e10f40001c003a006e0090000000e000d7
:104184001900320011258100310798000040800099
:10419400be0090002100980000408000be00900006
:1041a400a1009000310098003e0090002000900093
:1041b400014080008180e8001100980000408000e8
:1041c4008080e8003e0090002100980000408000bc
:1041d400014a220051009800002581000000e800f7
:1041e400002589001a0037005e0090001e00400080
:1041f4004007980000408000ce0090001100980015
:104204004e0090009e0f50000600310000408000d8
:104214000080e800800078002e009000bf130700a3
:104224000b003700004080000080e8008000780028
:104234001e009000b9130700b0408000ce0090002b
:10424400808f500002003100ce009000b140880001
:104254000080fa00000006000200fa000028ef00c7
:104264000628ef000828ef000a28ef000c28ef00ca
:104274000e28ef000000eb00000f78000700370065
:104284001e00780080004000008120000080400073
:104294008000eb00010878001e0fe8001e00780083
:1042a4000000e000f6ff34001228ef001428ef00ad
:1042b4001628ef001a28ef000080fa00000006001c
:1042c4000800fa0020079800310798001000200029
:1042d400000f7800ae009000110798001e009000b7
:1042e4000000e0004c0032001e00900070089000b6
:1042f4000000e000480032001e00900070089000aa
:104304008080eb0000017800110009008280d80051
:10431400800078001e00900000109000808f5000f4
:104324003d003900241307001e009000100178009e
:104334001e009000f00890001e00900000109000f5
:104344000088b90000007800800041001e00900041
:10435400210098001e0090008000eb006108980086
:104364001e009000900078001e009000110098003c
:104374001e009000100178001e009000700890004c
:104384008000e9001e009000001090000088b90031
:1043940000007800800041001e0090003100980069
:1043a4001e00900080c0eb00216098001e00900069
:1043b40080c0eb00316098003e0090000000e000f7
:1043c4000d003a001e009000400090000000e00044
:1043d4000f0032001e0090006800400083f80700c0
:1043e4000000e0000a003200124b0200000000004e
:1043f40000000000060037001e0090006800400026
:10440400081307001e009000720040000513070007
:10441400f6120700020037000000eb00000f7800de
:104424001e0078000080fa00000006000c00fa006c
:104434003007980041079800224f98000000eb00d5
:10444400000f78003e0090000000e00027003200da
:104454008080eb003e00900000017800110009000c
:104464008280d800800078004e009000808f500039
:104474001e003900be0090004e0090000088b90074
:1044840080007800b0fd2f00808f500017003e00a0
:10449400be0090004e0090000088b9000000780033
:1044a400100798001e0090004002b000d8130700c7
:1044b400000f78001e0078000000e0000b003200be
:1044c4009e007800210798002e0090004002b00062
:1044d400200798001e027800ae4990002e0190003b
:1044e400ce0090003e009000030007001e007800fc
:1044f4000080fa00000006000a00fa00000f7800ad
:104504001107980022079800634798004407980011
:104514001e0090000000e00004003a00ce0090006d
:104524004e0090000108780003003700ae009000b0
:104534004e009000010878004e0090009e00780024
:10454400710898004e0090009e00900001109800a1
:10455400110020004e00900059ff07000080fa006f
:10456400000006000200fa00000f78001e00780028
:104574000000e0000e0032001e0078008000eb0016
:10458400210098001e0078008000eb0001087800ec
:104594001e0078008000eb00310098008001eb00e1
:1045a4000001eb008000eb001e0078001200070001
:1045b4000080fa00000006000800fa006047980036
:1045c40010002000000f78000000eb001007980096
:1045d4006e4190009e0090001e00780093ff07003b
:1045e400200798002e009000deff07002e009000a8
:1045f4000080fa00000006001200fa00500798003c
:104604006107980072079800030f98000000eb0000
:10461400000f7800de0090001107980001003700b9
:1046240000000000641207001e009000e0089000e3
:104634001e00900070089000808f50000300390025
:104644000e089000e20f50001b003a000e09900083
:10465400ee0090001e009000d90207002007980089
:104664001e009000100890000000e00009003200d5
:104674001e00900072004000dcf707000000e0001c
:104684000a003200124b020000000000000000008b
:10469400060037002e0090000000e0000300320006
:1046a400124b020000000000000000004f1207003f
:1046b400100020003d0037007e0090000000e00064
:1046c40003003a00491207000000eb0037003700ee
:1046d4001e0078000000e00004003a006600470075
:1046e400fbf8070010002000000f78003f120700bd
:1046f40080f50700301207001e0090002060900033
:10470400e14f400003003a001e0090008040eb009f
:10471400216098001e00900030609000e14f40003e
:1047240003003a001e0090008040eb0031609800c6
:104734002e120700ee00470066004700eef807005f
:104744000000e00015003a001e0090007803070006
:104754000000e0000d003200fe0090001e009000fa
:10476400680040006cf707001e0090001803070063
:1047740066f507000000e000a9ff3a00124b0200b2
:104784000000000000000000a6ff37001e0090009b
:104794000f0307005df50700a2ff37001e0090001d
:1047a4000b03070059f507000000eb000080fa0036
:1047b400000006001400fa006007980071079800d2
:1047c400020f9800130f9800ee0090001107980054
:1047d4000000eb00200798001e009000e008900005
:1047e4001e00900070089000808f50000300390074
:1047f4001e089000e20f50002c003a001e009000aa
:10480400b0609000614798001e009000e00890009e
:10481400410798001e099000fe0090001e009000c1
:10482400670207006e409000e14f400010003a001c
:104834001e009000100890000000e00018003200f4
:104844001e0090007200400068f707000000e000be
:10485400130032000e0890000000e0001000320047
:104864000e08900011002000010878000c003700a9
:10487400f4f50700500798006e4090008000fb009c
:104884005e009000808f5000050031006e40900063
:104894000040e800804078001e00900031609800dd
:1048a40010002000000f7800020037000000eb0029
:1048b400000f78001e0078000080fa000000060057
:1048c4001000fa006007980071079800ee0090004d
:1048d400110798000000eb00200798001e009000cc
:1048e400e0089000310798001e009000f008900046
:1048f4003e009000808f5000290036001e0090007a
:10490400b0609000014f98003e0090008000e800e5
:104914001e009000610898000e489000e14f40008e
:1049240010003a001e009000100890000000e00003
:10493400180032001e009000720040002bf70700a0
:104944000000e000130032007e0090000000e00050
:10495400100032007e009000110020000108780051
:104964000c003700b7f50700500798000e48900078
:104974008000fb005e009000808f50000500310035
:104984000e4890000040e800804078001e0090002f
:104994003160980010002000000f780002003700fa
:1049a4000000eb00000f78001e0078000080fa0081
:1049b400000006001000fa005007980061079800f4
:1049c400720798000000eb00000f7800de009000f2
:1049d40011079800030037000000000001003700b1
:1049e40000000000741107001e009000e008900011
:1049f400210798002e0090000000e000160032000d
:104a0400ee0090001e0090004f0207002e00900060
:104a14008000e9001e009000610898001e009000cc
:104a2400400090000000e000080032001e009000ea
:104a340068004000edf607000000e00003003200cb
:104a4400124b020000000000000000006711070084
:104a540010002000410037007e0090000000e000bc
:104a640003003a00611107000000eb003b0037002f
:104a74001e0078000000e00004003a0066004700d1
:104a840013f8070010002000000f780057110700ea
:104a940098f40700481107001e0090002060900061
:104aa400e14f400003003a001e0090008040eb00fc
:104ab400216098001e00900030609000e14f40009b
:104ac40003003a001e0090008040eb003160980023
:104ad40046110700ee0047006600470006f807008d
:104ae4000000e00015003a001e009000700207006c
:104af4000000e0000d003200fe0090001e00900057
:104b04007200400084f607001e0090003002070087
:104b14007ef407000000e000afff3a00124b0200f1
:104b24000000000000000000aeff37001e009000ef
:104b34002702070075f40700aaff37001e00900043
:104b44002302070071f407001e00900058020700ba
:104b54000000e000a2ff32000000eb000080fa0039
:104b6400000006001200fa0070079800010f980078
:104b74000000eb00000f7800fe0090002107980071
:104b84000000eb001007980003003700000000004d
:104b94000100370000000000071107002e009000fc
:104ba400e0089000310798003e0090000000e0000b
:104bb4001a0032003e0090008000e9002e009000b0
:104bc400610898002e009000100078000000e000ba
:104bd40003003a00a2f90700ae009000a00098007c
:104be4002e009000400090000000e0000800320019
:104bf4002e009000680040007cf607000000e000f2
:104c040003003200124b020000000000000000000c
:104c1400f610070010002000570037000e0890001f
:104c24000000e00003003a00f01007000000eb0071
:104c3400510037001e0078000000e00004003a0034
:104c44006a004700a2f7070010002000000f780058
:104c5400e610070027f40700d71007002e00900085
:104c640020609000e14f400003003a002e009000c5
:104c74008040eb00216098002e009000306090008e
:104c8400e14f400003003a002e0090008040eb000a
:104c940031609800d5100700f00047006a00470013
:104ca40095f707000000e0001f003a002e00900076
:104cb400ff0107000000e000170032002e00900002
:104cc400100078000000e00006003a00ba10070067
:104cd4002e0090002000900011f8070010079800a3
:104ce400c21007008e0890002e0090007200400051
:104cf40009f607002e009000b501070003f4070031
:104d04000000e000a1ff3a00124b02000000000086
:104d140000000000a0ff37002e009000ac01070047
:104d2400faf307009cff37002e009000a80107004b
:104d3400f6f307002e009000dd0107000000e000fc
:104d440094ff32001e0090000000e00009003200d1
:104d5400991007002e0090000901070040079800f1
:104d64002e00900020009000ce009000bff80700b5
:104d74009e1007000000eb000080fa00000006000f
:104d84001200fa006007980071079800020f98005b
:104d94000000eb00000f7800ee009000110798006f
:104da400030037000000000001003700000000008d
:104db400811007001e009000e00890002107980071
:104dc4002e0090000000e000180032001e00900049
:104dd400b000900031079800fe0090001e00900083
:104de400590107001e009000be0090003100980099
:104df4001e009000100890000000e000080032003f
:104e04001e00900072004000f8f507000000e0006a
:104e140003003200124b02000000000000000000fa
:104e24007210070010002000410037000e089000a7
:104e34000000e00003003a006c1007000000eb00e3
:104e44003b0037001e0078000000e00004003a0038
:104e5400680047001ef7070010002000000f7800cc
:104e640062100700a3f30700531007001e00900010
:104e740020609000e14f400003003a001e009000c3
:104e84008040eb00216098001e009000306090008c
:104e9400e14f400003003a001e0090008040eb0008
:104ea4003160980051100700f00047006800470087
:104eb40011f707000000e00015003a001e00900002
:104ec4007b0107000000e0000d0032008e08900016
:104ed4001e009000720040008ff507001e00900035
:104ee4003b01070089f307000000e000adff3a0032
:104ef400124b02000000000000000000acff37006d
:104f04001e0090003201070080f30700a8ff37005d
:104f14001e0090002e0107007cf307001e00900085
:104f2400630107000000e000a0ff32000000eb0076
:104f34000080fa00000006001200fa0060079800e2
:104f440071079800020f9800ee0090001107980076
:104f54000000eb00200798001e009000e00890007d
:104f6400310798003e0090000000e0002c00320061
:104f74001e009000a0609000014f9800fe00900079
:104f84001e009000f00007003e0090008000e90041
:104f94001e009000610898000e489000e14f400008
:104fa40010003a001e009000400090000000e00055
:104fb400180032001e009000680040008bf50700c6
:104fc4000000e000130032000e0890000000e00032
:104fd400100032000e089000110020000108780033
:104fe4000c00370017f40700500798000e48900093
:104ff4008000fb005e009000808f500005003100af
:105004000e4890000040e800804078001e009000a8
:105014002160980010002000000f78000200370083
:105024000000eb00000f78001e0078000080fa00fa
:10503400000006000c00fa00400798005107980091
:10504400ce009000110798000000eb0020079800a4
:105054001e009000600890000000e0000c00320088
:105064001e009000b000900031079800de00900010
:105074001e009000b40007001e009000be009000c7
:105084003100980010002000000f78000200370063
:105094000000eb00000f78001e0078000080fa008a
:1050a400000006000400fa0010079800c20f070071
:1050b4001e009000e0089000010f7800cb0f07005d
:1050c4001e0078000080fa00000006000600fa00c6
:1050d40020079800ae009000010f7800b60f07007b
:1050e4001e007800f00890001e0078006008900010
:1050f4000080500010079800bc0f07001e009000ad
:105104000080fa00000006000600fa00200798005c
:10511400ae009000010f78001e007800e0089000b7
:10512400110798001e0090000080fa00000006009d
:105134000400fa00100798009e009000010f780008
:105144001e007800eb1007000080fa000000060043
:105154000200fa00000f78001e0078000010900092
:105164000080fa00000006000200fa00000f780038
:105174001e007800700890000080fa00000006000d
:105184000400fa00100798001e0090001008900018
:105194000000e000050032001e009000400890006e
:1051a40010007800650f1000020037000000eb00cb
:1051b400000f78001e0078000080fa00000006004e
:1051c4000a00fa0020079800310798004207980067
:1051d4000000eb00000f78002e009000e008900023
:1051e400110798002e009000001090000000e000cd
:1051f4000c003a002e009000100078000000e0003f
:105204004a003a002e0090002000900037f7070073
:10521400000f78002e0090008000eb002100980021
:10522400420037004e0090000000e00019003a00f0
:105234002e009000801090002e009000100090002e
:1052440001017800be00900043ed07002e0090009d
:10525400900090002e00900000109000808040008c
:105264002e009000110098002e00900090009000f5
:105274002e00900020009000808f50002b003900f9
:105284002e009000900078002e00900011009800ed
:10529400260037002e009000801090002e00900011
:1052a4003000900001017800be0090002aed070054
:1052b4002e009000b00090002e009000001090008e
:1052c4000000ea00808040002e0090003100980029
:1052d4002e009000b00090002e0090001000780086
:1052e400808f5000080031002e009000a000900034
:1052f4002e009000001090000000ea008080400022
:105304002e009000310098004e009000e20f5000f3
:1053140006003a001e0090000000e0000300320086
:105324001e0090000000e900100798001e00900085
:105334008000e8002e009000610898001e007800ac
:105344000080fa00000006000400fa00000f780054
:10535400110798001e007800001090000000e00083
:10536400190032001e007800b00090001e00780082
:1053740000109000808040001e00780031009800ea
:105384001e007800b00090001e00780020009000fd
:10539400808f5000040039001e00780090007800cf
:1053a4001e007800310098001e00780080109000e4
:1053b4001e00780030009000010178008000780021
:1053c4001e009000e4ec07000080fa0000000600d4
:1053d4000400fa0010079800f70e07001e00900062
:1053e400b0609000014f78000b0037001e00900061
:1053f400100890000000e0000b0032001e00900036
:105404007200400079f407000000e000010032005f
:10541400f4f507001e4fe9001e4078000004e00088
:10542400f2ff3c0001003700000000001e00900065
:1054340080c0eb0031609800ec0e0700de0e070020
:105444001e009000a0609000114798000d003700e6
:105454001e009000400090000000e0000d003200ab
:105464001e0090006800400060f407000000e000a7
:1054740001003200dbf507001e4090000040e90007
:10548400104798001e4090000004e000f0ff3c002c
:1054940001003700000000001e00900080c0eb00f7
:1054a40021609800d10e07000080fa000000060079
:1054b4000400fa0010079800bf0e07001e009000b9
:1054c400600890000000e00003003a001000200093
:1054d400000f7800020037000000eb00000f780096
:1054e400c20e07001e0078000080fa0000000600cb
:1054f4000600fa0020079800ae00900011079800fb
:105504001e009000600890000000e00003003a00d4
:1055140010002000000f7800020037000000eb00ac
:10552400000f78001e0078000080fa0000000600da
:105534000400fa00100798009f0e07001e00900058
:10554400e00890001e00900070089000808f5000ca
:1055540003003a0010002000000f7800020037001a
:105564000000eb00000f7800a00e07001e0078007a
:105574000080fa00000006000600fa0020079800e8
:10558400ae009000110798001e009000e008900003
:105594001e00900070089000808f500003003a00b5
:1055a40010002000000f7800020037000000eb001c
:1055b400000f78001e0078000080fa00000006004a
:1055c4000a00fa0020079800310798004207980063
:1055d400ae0090001107980011028000f0f12f0036
:1055e400008060000050a00010028800000000004d
:1055f400000000001e009000cdff07000000e00046
:10560400160032004e0090000000e0000c00320052
:105614001e00900068004000800078004e0090005a
:10562400250c070011028000f0f12f0000806000bb
:105634001002880000000000c0ff2f003300370074
